{
  "contractName": "Upload",
  "abi": [
    {
      "inputs": [
        {
          "internalType": "address",
          "name": "_user",
          "type": "address"
        },
        {
          "internalType": "string",
          "name": "url",
          "type": "string"
        }
      ],
      "name": "add",
      "outputs": [],
      "stateMutability": "nonpayable",
      "type": "function"
    },
    {
      "inputs": [
        {
          "internalType": "address",
          "name": "user",
          "type": "address"
        }
      ],
      "name": "allow",
      "outputs": [],
      "stateMutability": "nonpayable",
      "type": "function"
    },
    {
      "inputs": [
        {
          "internalType": "address",
          "name": "user",
          "type": "address"
        }
      ],
      "name": "disallow",
      "outputs": [],
      "stateMutability": "nonpayable",
      "type": "function"
    },
    {
      "inputs": [
        {
          "internalType": "address",
          "name": "_user",
          "type": "address"
        }
      ],
      "name": "display",
      "outputs": [
        {
          "internalType": "string[]",
          "name": "",
          "type": "string[]"
        }
      ],
      "stateMutability": "view",
      "type": "function",
      "constant": true
    },
    {
      "inputs": [],
      "name": "AccessFriends",
      "outputs": [
        {
          "internalType": "string[]",
          "name": "",
          "type": "string[]"
        }
      ],
      "stateMutability": "view",
      "type": "function",
      "constant": true
    },
    {
      "inputs": [],
      "name": "MyFriends",
      "outputs": [
        {
          "internalType": "string[]",
          "name": "",
          "type": "string[]"
        }
      ],
      "stateMutability": "view",
      "type": "function",
      "constant": true
    },
    {
      "inputs": [],
      "name": "shareAccess",
      "outputs": [
        {
          "components": [
            {
              "internalType": "address",
              "name": "user",
              "type": "address"
            },
            {
              "internalType": "bool",
              "name": "access",
              "type": "bool"
            }
          ],
          "internalType": "struct Upload.Access[]",
          "name": "",
          "type": "tuple[]"
        }
      ],
      "stateMutability": "view",
      "type": "function",
      "constant": true
    }
  ],
  "bytecode": "0x608060405234801561001057600080fd5b5061143b806100206000396000f3fe608060405234801561001057600080fd5b506004361061007d5760003560e01c8063a9ed9cb81161005b578063a9ed9cb8146100da578063bc8bef81146100f6578063eb39113f14610114578063ff9913e8146101445761007d565b806336d6da551461008257806337b371601461009e5780633dc76506146100bc575b600080fd5b61009c60048036038101906100979190610f59565b610160565b005b6100a66101dc565b6040516100b391906110ff565b60405180910390f35b6100c46102f2565b6040516100d191906110ff565b60405180910390f35b6100f460048036038101906100ef9190611121565b61040b565b005b6100fe61062d565b60405161010b9190611256565b60405180910390f35b61012e60048036038101906101299190611121565b610736565b60405161013b91906110ff565b60405180910390f35b61015e60048036038101906101599190611121565b61094c565b005b6000808373ffffffffffffffffffffffffffffffffffffffff1673ffffffffffffffffffffffffffffffffffffffff168152602001908152602001600020819080600181540180825580915050600190039060005260206000200160009091909190915090805190602001906101d7929190610cfe565b505050565b6060600160003373ffffffffffffffffffffffffffffffffffffffff1673ffffffffffffffffffffffffffffffffffffffff168152602001908152602001600020805480602002602001604051908101604052809291908181526020016000905b828210156102e957838290600052602060002001805461025c906112a7565b80601f0160208091040260200160405190810160405280929190818152602001828054610288906112a7565b80156102d55780601f106102aa576101008083540402835291602001916102d5565b820191906000526020600020905b8154815290600101906020018083116102b857829003601f168201915b50505050508152602001906001019061023d565b50505050905090565b6060600260003373ffffffffffffffffffffffffffffffffffffffff1673ffffffffffffffffffffffffffffffffffffffff168152602001908152602001600020600101805480602002602001604051908101604052809291908181526020016000905b82821015610402578382906000526020600020018054610375906112a7565b80601f01602080910402602001604051908101604052809291908181526020018280546103a1906112a7565b80156103ee5780601f106103c3576101008083540402835291602001916103ee565b820191906000526020600020905b8154815290600101906020018083116103d157829003601f168201915b505050505081526020019060010190610356565b50505050905090565b6000600360003373ffffffffffffffffffffffffffffffffffffffff1673ffffffffffffffffffffffffffffffffffffffff16815260200190815260200160002060008373ffffffffffffffffffffffffffffffffffffffff1673ffffffffffffffffffffffffffffffffffffffff16815260200190815260200160002060006101000a81548160ff02191690831515021790555060005b600460003373ffffffffffffffffffffffffffffffffffffffff1673ffffffffffffffffffffffffffffffffffffffff16815260200190815260200160002080549050811015610629578173ffffffffffffffffffffffffffffffffffffffff16600460003373ffffffffffffffffffffffffffffffffffffffff1673ffffffffffffffffffffffffffffffffffffffff1681526020019081526020016000208281548110610555576105546112d8565b5b9060005260206000200160000160009054906101000a900473ffffffffffffffffffffffffffffffffffffffff1673ffffffffffffffffffffffffffffffffffffffff1603610616576000600460003373ffffffffffffffffffffffffffffffffffffffff1673ffffffffffffffffffffffffffffffffffffffff16815260200190815260200160002082815481106105f1576105f06112d8565b5b9060005260206000200160000160146101000a81548160ff0219169083151502179055505b808061062190611340565b9150506104a3565b5050565b6060600460003373ffffffffffffffffffffffffffffffffffffffff1673ffffffffffffffffffffffffffffffffffffffff168152602001908152602001600020805480602002602001604051908101604052809291908181526020016000905b8282101561072d578382906000526020600020016040518060400160405290816000820160009054906101000a900473ffffffffffffffffffffffffffffffffffffffff1673ffffffffffffffffffffffffffffffffffffffff1673ffffffffffffffffffffffffffffffffffffffff1681526020016000820160149054906101000a900460ff1615151515815250508152602001906001019061068e565b50505050905090565b60603373ffffffffffffffffffffffffffffffffffffffff168273ffffffffffffffffffffffffffffffffffffffff1614806107f85750600360008373ffffffffffffffffffffffffffffffffffffffff1673ffffffffffffffffffffffffffffffffffffffff16815260200190815260200160002060003373ffffffffffffffffffffffffffffffffffffffff1673ffffffffffffffffffffffffffffffffffffffff16815260200190815260200160002060009054906101000a900460ff165b610837576040517f08c379a000000000000000000000000000000000000000000000000000000000815260040161082e906113e5565b60405180910390fd5b6000808373ffffffffffffffffffffffffffffffffffffffff1673ffffffffffffffffffffffffffffffffffffffff168152602001908152602001600020805480602002602001604051908101604052809291908181526020016000905b828210156109415783829060005260206000200180546108b4906112a7565b80601f01602080910402602001604051908101604052809291908181526020018280546108e0906112a7565b801561092d5780601f106109025761010080835404028352916020019161092d565b820191906000526020600020905b81548152906001019060200180831161091057829003601f168201915b505050505081526020019060010190610895565b505050509050919050565b600560003373ffffffffffffffffffffffffffffffffffffffff1673ffffffffffffffffffffffffffffffffffffffff16815260200190815260200160002060008273ffffffffffffffffffffffffffffffffffffffff1673ffffffffffffffffffffffffffffffffffffffff16815260200190815260200160002060009054906101000a900460ff1615610b6a5760005b600460003373ffffffffffffffffffffffffffffffffffffffff1673ffffffffffffffffffffffffffffffffffffffff16815260200190815260200160002080549050811015610b64578173ffffffffffffffffffffffffffffffffffffffff16600460003373ffffffffffffffffffffffffffffffffffffffff1673ffffffffffffffffffffffffffffffffffffffff1681526020019081526020016000208281548110610a9057610a8f6112d8565b5b9060005260206000200160000160009054906101000a900473ffffffffffffffffffffffffffffffffffffffff1673ffffffffffffffffffffffffffffffffffffffff1603610b51576001600460003373ffffffffffffffffffffffffffffffffffffffff1673ffffffffffffffffffffffffffffffffffffffff1681526020019081526020016000208281548110610b2c57610b2b6112d8565b5b9060005260206000200160000160146101000a81548160ff0219169083151502179055505b8080610b5c90611340565b9150506109de565b50610cfb565b600460003373ffffffffffffffffffffffffffffffffffffffff1673ffffffffffffffffffffffffffffffffffffffff16815260200190815260200160002060405180604001604052808373ffffffffffffffffffffffffffffffffffffffff168152602001600115158152509080600181540180825580915050600190039060005260206000200160009091909190915060008201518160000160006101000a81548173ffffffffffffffffffffffffffffffffffffffff021916908373ffffffffffffffffffffffffffffffffffffffff16021790555060208201518160000160146101000a81548160ff02191690831515021790555050506001600560003373ffffffffffffffffffffffffffffffffffffffff1673ffffffffffffffffffffffffffffffffffffffff16815260200190815260200160002060008373ffffffffffffffffffffffffffffffffffffffff1673ffffffffffffffffffffffffffffffffffffffff16815260200190815260200160002060006101000a81548160ff0219169083151502179055505b50565b828054610d0a906112a7565b90600052602060002090601f016020900481019282610d2c5760008555610d73565b82601f10610d4557805160ff1916838001178555610d73565b82800160010185558215610d73579182015b82811115610d72578251825591602001919060010190610d57565b5b509050610d809190610d84565b5090565b5b80821115610d9d576000816000905550600101610d85565b5090565b6000604051905090565b600080fd5b600080fd5b600073ffffffffffffffffffffffffffffffffffffffff82169050919050565b6000610de082610db5565b9050919050565b610df081610dd5565b8114610dfb57600080fd5b50565b600081359050610e0d81610de7565b92915050565b600080fd5b600080fd5b6000601f19601f8301169050919050565b7f4e487b7100000000000000000000000000000000000000000000000000000000600052604160045260246000fd5b610e6682610e1d565b810181811067ffffffffffffffff82111715610e8557610e84610e2e565b5b80604052505050565b6000610e98610da1565b9050610ea48282610e5d565b919050565b600067ffffffffffffffff821115610ec457610ec3610e2e565b5b610ecd82610e1d565b9050602081019050919050565b82818337600083830152505050565b6000610efc610ef784610ea9565b610e8e565b905082815260208101848484011115610f1857610f17610e18565b5b610f23848285610eda565b509392505050565b600082601f830112610f4057610f3f610e13565b5b8135610f50848260208601610ee9565b91505092915050565b60008060408385031215610f7057610f6f610dab565b5b6000610f7e85828601610dfe565b925050602083013567ffffffffffffffff811115610f9f57610f9e610db0565b5b610fab85828601610f2b565b9150509250929050565b600081519050919050565b600082825260208201905092915050565b6000819050602082019050919050565b600081519050919050565b600082825260208201905092915050565b60005b8381101561101b578082015181840152602081019050611000565b8381111561102a576000848401525b50505050565b600061103b82610fe1565b6110458185610fec565b9350611055818560208601610ffd565b61105e81610e1d565b840191505092915050565b60006110758383611030565b905092915050565b6000602082019050919050565b600061109582610fb5565b61109f8185610fc0565b9350836020820285016110b185610fd1565b8060005b858110156110ed57848403895281516110ce8582611069565b94506110d98361107d565b925060208a019950506001810190506110b5565b50829750879550505050505092915050565b60006020820190508181036000830152611119818461108a565b905092915050565b60006020828403121561113757611136610dab565b5b600061114584828501610dfe565b91505092915050565b600081519050919050565b600082825260208201905092915050565b6000819050602082019050919050565b61118381610dd5565b82525050565b60008115159050919050565b61119e81611189565b82525050565b6040820160008201516111ba600085018261117a565b5060208201516111cd6020850182611195565b50505050565b60006111df83836111a4565b60408301905092915050565b6000602082019050919050565b60006112038261114e565b61120d8185611159565b93506112188361116a565b8060005b8381101561124957815161123088826111d3565b975061123b836111eb565b92505060018101905061121c565b5085935050505092915050565b6000602082019050818103600083015261127081846111f8565b905092915050565b7f4e487b7100000000000000000000000000000000000000000000000000000000600052602260045260246000fd5b600060028204905060018216806112bf57607f821691505b6020821081036112d2576112d1611278565b5b50919050565b7f4e487b7100000000000000000000000000000000000000000000000000000000600052603260045260246000fd5b7f4e487b7100000000000000000000000000000000000000000000000000000000600052601160045260246000fd5b6000819050919050565b600061134b82611336565b91507fffffffffffffffffffffffffffffffffffffffffffffffffffffffffffffffff820361137d5761137c611307565b5b600182019050919050565b600082825260208201905092915050565b7f596f7520646f6e27742068617665206163636573730000000000000000000000600082015250565b60006113cf601583611388565b91506113da82611399565b602082019050919050565b600060208201905081810360008301526113fe816113c2565b905091905056fea2646970667358221220e18ded429d7d356d2e43ade36e234833ab14eca8c4491925f95c15f69e39625264736f6c634300080d0033",
  "immutableReferences": {},
  "source": "pragma solidity >= 0.5.2;\r\n\r\n\r\ncontract Upload {\r\n  \r\n  struct Access{\r\n     address user; \r\n     bool access; //true or false\r\n  }\r\n  struct Person{\r\n    address user;\r\n    string[] Access;\r\n  }\r\n  mapping(address=>string[]) value;\r\n  mapping(address=>string[])friends;\r\n  mapping(address=>Person)person;\r\n  mapping(address=>mapping(address=>bool)) ownership;\r\n  mapping(address=>Access[]) accessList;\r\n  mapping(address=>mapping(address=>bool)) previousData;\r\n\r\n  function add(address _user,string memory url) external {\r\n      value[_user].push(url);\r\n  }\r\n  function allow(address user) external {//def\r\n    //   ownership[msg.sender][user]=true; \r\n      if(previousData[msg.sender][user]){\r\n         for(uint i=0;i<accessList[msg.sender].length;i++){\r\n             if(accessList[msg.sender][i].user==user){\r\n                  accessList[msg.sender][i].access=true; \r\n             }\r\n         }\r\n      }else{\r\n          accessList[msg.sender].push(Access(user,true));  \r\n          previousData[msg.sender][user]=true;  \r\n      }\r\n    \r\n  }\r\n  function disallow(address user) public{\r\n      ownership[msg.sender][user]=false;\r\n      for(uint i=0;i<accessList[msg.sender].length;i++){\r\n          if(accessList[msg.sender][i].user==user){ \r\n              accessList[msg.sender][i].access=false;  \r\n          }\r\n      }\r\n  }\r\n\r\n      function display(address _user) external view returns(string[] memory){\r\n      require(_user==msg.sender || ownership[_user][msg.sender],\"You don't have access\");\r\n      return value[_user];\r\n  }\r\n//   function display(address user) external view returns(string memory){\r\n//     if(user==msg.sender || ownership[user][msg.sender]){\r\n// \r\n//     }else{\r\n        \r\n//     }\r\n    //   require(user==msg.sender || ownership[user][msg.sender],\"You don't have access\");\r\n      \r\n    function AccessFriends() public view returns(string[] memory){\r\n        return person[msg.sender].Access;\r\n    }\r\n    function MyFriends() public view returns(string[] memory){\r\n        return friends[msg.sender];\r\n    }\r\n\r\n  function shareAccess() public view returns(Access[] memory){\r\n      return accessList[msg.sender];\r\n  }\r\n}",
  "sourcePath": "C:\\Users\\prashant\\Desktop\\minihack\\MiniHack\\contracts\\Upload.sol",
  "compiler": {
    "name": "solc",
    "version": "0.8.13+commit.abaa5c0e.Emscripten.clang"
  },
  "schemaVersion": "3.4.16",
  "updatedAt": "2024-03-30T04:01:14.659Z",
  "networkType": "ethereum",
  "devdoc": {
    "kind": "dev",
    "methods": {},
    "version": 1
  },
  "userdoc": {
    "kind": "user",
    "methods": {},
    "version": 1
  }
}